:0400000000000000FC
:0400040000000001F7
:0400080000000002F2
:04000C0000000003ED
:0400100000000004E8
:0400140000000005E3
:0400180000000006DE
:04001C0000000007D9
:0400200000000008D4
:0400240000000009CF
:040028000000000ACA
:04002C000000000BC5
:040030000000000CC0
:040034000000000DBB
:040038000000000EB6
:04003C000000000FB1
:0400400000000010AC
:0400440000000011A7
:0400480000000012A2
:04004C00000000139D
:040050000000001498
:040054000000001593
:04005800000000168E
:04005C000000001789
:040060000000001884
:04006400000000197F
:040068000000001A7A
:04006C000000001B75
:040070000000001C70
:040074000000001D6B
:040078000000001E66
:04007C000000001F61
:00000001FF
